{
  "contractName": "Lottery",
  "abi": [
    {
      "constant": true,
      "inputs": [
        {
          "name": "",
          "type": "uint256"
        }
      ],
      "name": "tickets",
      "outputs": [
        {
          "name": "player",
          "type": "address"
        },
        {
          "name": "lottery",
          "type": "uint256"
        },
        {
          "name": "state",
          "type": "uint8"
        }
      ],
      "payable": false,
      "stateMutability": "view",
      "type": "function"
    },
    {
      "inputs": [
        {
          "name": "oracleAddress",
          "type": "address"
        }
      ],
      "payable": false,
      "stateMutability": "nonpayable",
      "type": "constructor"
    },
    {
      "payable": true,
      "stateMutability": "payable",
      "type": "fallback"
    },
    {
      "constant": false,
      "inputs": [
        {
          "name": "number",
          "type": "uint256"
        }
      ],
      "name": "bet",
      "outputs": [
        {
          "name": "ticket_id",
          "type": "uint256"
        }
      ],
      "payable": true,
      "stateMutability": "payable",
      "type": "function"
    },
    {
      "constant": false,
      "inputs": [],
      "name": "draw",
      "outputs": [
        {
          "name": "",
          "type": "uint256"
        }
      ],
      "payable": false,
      "stateMutability": "nonpayable",
      "type": "function"
    },
    {
      "constant": true,
      "inputs": [],
      "name": "showCurrentResult",
      "outputs": [
        {
          "components": [
            {
              "name": "winningNumber",
              "type": "uint256"
            },
            {
              "name": "pool",
              "type": "uint256"
            },
            {
              "name": "winners",
              "type": "uint256"
            }
          ],
          "name": "",
          "type": "tuple"
        }
      ],
      "payable": false,
      "stateMutability": "view",
      "type": "function"
    },
    {
      "constant": true,
      "inputs": [],
      "name": "showHistoryResults",
      "outputs": [
        {
          "components": [
            {
              "name": "winningNumber",
              "type": "uint256"
            },
            {
              "name": "pool",
              "type": "uint256"
            },
            {
              "name": "winners",
              "type": "uint256"
            }
          ],
          "name": "",
          "type": "tuple[]"
        }
      ],
      "payable": false,
      "stateMutability": "view",
      "type": "function"
    },
    {
      "constant": true,
      "inputs": [],
      "name": "showByAddress",
      "outputs": [
        {
          "components": [
            {
              "name": "player",
              "type": "address"
            },
            {
              "name": "lottery",
              "type": "uint256"
            },
            {
              "name": "state",
              "type": "uint8"
            }
          ],
          "name": "results",
          "type": "tuple[]"
        }
      ],
      "payable": false,
      "stateMutability": "view",
      "type": "function"
    }
  ],
  "bytecode": "0x60806040523480156200001157600080fd5b50604051602080620013198339810180604052620000339190810190620001d5565b806000806101000a81548173ffffffffffffffffffffffffffffffffffffffff021916908373ffffffffffffffffffffffffffffffffffffffff16021790555033600460006101000a81548173ffffffffffffffffffffffffffffffffffffffff021916908373ffffffffffffffffffffffffffffffffffffffff1602179055506000600881905550603c600581905550600554420160078190555060016006819055506060604051908101604052806000815260200160008152602001600081525060028080548091906001016200010d919062000150565b8154811015156200011a57fe5b90600052602060002090600302016000820151816000015560208201518160010155604082015181600201559050505062000221565b81548183558181111562000180576003028160030283600052602060002091820191016200017f919062000185565b5b505050565b620001bc91905b80821115620001b85760008082016000905560018201600090556002820160009055506003016200018c565b5090565b90565b6000620001cd825162000201565b905092915050565b600060208284031215620001e857600080fd5b6000620001f884828501620001bf565b91505092915050565b600073ffffffffffffffffffffffffffffffffffffffff82169050919050565b6110e880620002316000396000f300608060405260043610610078576000357c0100000000000000000000000000000000000000000000000000000000900463ffffffff1680630eecae211461007a5780633be5978e146100a557806350b44712146100d05780636d707da11461010f5780637365870b1461013a578063eadfbb031461016a575b005b34801561008657600080fd5b5061008f610195565b60405161009c9190610fed565b60405180910390f35b3480156100b157600080fd5b506100ba61057f565b6040516100c79190610fd2565b60405180910390f35b3480156100dc57600080fd5b506100f760048036036100f29190810190610cae565b6105db565b60405161010693929190610f17565b60405180910390f35b34801561011b57600080fd5b50610124610641565b6040516101319190610f4e565b60405180910390f35b610154600480360361014f9190810190610cae565b6106bf565b6040516101619190610fed565b60405180910390f35b34801561017657600080fd5b5061017f6108a8565b60405161018c9190610f70565b60405180910390f35b600080600080600960006101a99190610ab2565b6000809054906101000a900473ffffffffffffffffffffffffffffffffffffffff1673ffffffffffffffffffffffffffffffffffffffff1663aacc5a176040518163ffffffff167c0100000000000000000000000000000000000000000000000000000000028152600401602060405180830381600087803b15801561022e57600080fd5b505af1158015610242573d6000803e3d6000fd5b505050506040513d601f19601f820116820180604052506102669190810190610cd7565b92503073ffffffffffffffffffffffffffffffffffffffff163191505b600180549050600854101561040c578260016008548154811015156102a457fe5b90600052602060002090600302016001015414156103b157600060016008548154811015156102cf57fe5b906000526020600020906003020160020160006101000a81548160ff021916908360028111156102fb57fe5b0217905550600160085481548110151561031157fe5b906000526020600020906003020160000160009054906101000a900473ffffffffffffffffffffffffffffffffffffffff1660098080548091906001016103589190610ad3565b81548110151561036457fe5b9060005260206000200160006101000a81548173ffffffffffffffffffffffffffffffffffffffff021916908373ffffffffffffffffffffffffffffffffffffffff1602179055506103f5565b6001806008548154811015156103c357fe5b906000526020600020906003020160020160006101000a81548160ff021916908360028111156103ef57fe5b02179055505b600860008154809291906001019190505550610283565b600090505b6009805490508110156104d25760098181548110151561042d57fe5b9060005260206000200160009054906101000a900473ffffffffffffffffffffffffffffffffffffffff1673ffffffffffffffffffffffffffffffffffffffff166108fc6009805490503073ffffffffffffffffffffffffffffffffffffffff163181151561049857fe5b049081150290604051600060405180830381858888f193505050501580156104c4573d6000803e3d6000fd5b508080600101915050610411565b60606040519081016040528084815260200183815260200160098054905081525060028080548091906001016105089190610aff565b81548110151561051457fe5b90600052602060002090600302016000820151816000015560208201518160010155604082015181600201559050506005544201600781905550600260016002805490500381548110151561056557fe5b906000526020600020906003020160000154935050505090565b610587610b31565b600260016002805490500381548110151561059e57fe5b9060005260206000209060030201606060405190810160405290816000820154815260200160018201548152602001600282015481525050905090565b6001818154811015156105ea57fe5b90600052602060002090600302016000915090508060000160009054906101000a900473ffffffffffffffffffffffffffffffffffffffff16908060010154908060020160009054906101000a900460ff16905083565b60606002805480602002602001604051908101604052809291908181526020016000905b828210156106b6578382906000526020600020906003020160606040519081016040529081600082015481526020016001820154815260200160028201548152505081526020019060010190610665565b50505050905090565b600060075442101515610707576040517f08c379a00000000000000000000000000000000000000000000000000000000081526004016106fe90610f92565b60405180910390fd5b6006543414151561074d576040517f08c379a000000000000000000000000000000000000000000000000000000000815260040161074490610fb2565b60405180910390fd5b600180548091906001016107619190610b53565b90506060604051908101604052803373ffffffffffffffffffffffffffffffffffffffff16815260200183815260200160028081111561079d57fe5b8152506001828154811015156107af57fe5b906000526020600020906003020160008201518160000160006101000a81548173ffffffffffffffffffffffffffffffffffffffff021916908373ffffffffffffffffffffffffffffffffffffffff1602179055506020820151816001015560408201518160020160006101000a81548160ff0219169083600281111561083257fe5b0217905550905050600360003373ffffffffffffffffffffffffffffffffffffffff1673ffffffffffffffffffffffffffffffffffffffff168152602001908152602001600020819080600181540180825580915050906001820390600052602060002001600090919290919091505550919050565b60606000600360003373ffffffffffffffffffffffffffffffffffffffff1673ffffffffffffffffffffffffffffffffffffffff1681526020019081526020016000208054905060405190808252806020026020018201604052801561092857816020015b610915610b85565b81526020019060019003908161090d5790505b509150600090505b600360003373ffffffffffffffffffffffffffffffffffffffff1673ffffffffffffffffffffffffffffffffffffffff16815260200190815260200160002080549050811015610aae576001600360003373ffffffffffffffffffffffffffffffffffffffff1673ffffffffffffffffffffffffffffffffffffffff168152602001908152602001600020828154811015156109c857fe5b90600052602060002001548154811015156109df57fe5b9060005260206000209060030201606060405190810160405290816000820160009054906101000a900473ffffffffffffffffffffffffffffffffffffffff1673ffffffffffffffffffffffffffffffffffffffff1673ffffffffffffffffffffffffffffffffffffffff168152602001600182015481526020016002820160009054906101000a900460ff166002811115610a7757fe5b6002811115610a8257fe5b815250508282815181101515610a9457fe5b906020019060200201819052508080600101915050610930565b5090565b5080546000825590600052602060002090810190610ad09190610bc8565b50565b815481835581811115610afa57818360005260206000209182019101610af99190610bc8565b5b505050565b815481835581811115610b2c57600302816003028360005260206000209182019101610b2b9190610bed565b5b505050565b6060604051908101604052806000815260200160008152602001600081525090565b815481835581811115610b8057600302816003028360005260206000209182019101610b7f9190610c24565b5b505050565b606060405190810160405280600073ffffffffffffffffffffffffffffffffffffffff1681526020016000815260200160006002811115610bc257fe5b81525090565b610bea91905b80821115610be6576000816000905550600101610bce565b5090565b90565b610c2191905b80821115610c1d576000808201600090556001820160009055600282016000905550600301610bf3565b5090565b90565b610c8391905b80821115610c7f57600080820160006101000a81549073ffffffffffffffffffffffffffffffffffffffff021916905560018201600090556002820160006101000a81549060ff021916905550600301610c2a565b5090565b90565b6000610c928235611092565b905092915050565b6000610ca68251611092565b905092915050565b600060208284031215610cc057600080fd5b6000610cce84828501610c86565b91505092915050565b600060208284031215610ce957600080fd5b6000610cf784828501610c9a565b91505092915050565b610d0981611052565b82525050565b6000610d1a82611022565b808452602084019350610d2c83611008565b60005b82811015610d5e57610d42868351610e84565b610d4b82611038565b9150606086019550600181019050610d2f565b50849250505092915050565b6000610d758261102d565b808452602084019350610d8783611015565b60005b82811015610db957610d9d868351610ec6565b610da682611045565b9150606086019550600181019050610d8a565b50849250505092915050565b610dce8161109c565b82525050565b6000600982527f54696d65206f75742e00000000000000000000000000000000000000000000006020830152604082019050919050565b6000601582527f496e76616c6964207469636b65742070726963652e00000000000000000000006020830152604082019050919050565b606082016000820151610e586000850182610f08565b506020820151610e6b6020850182610f08565b506040820151610e7e6040850182610f08565b50505050565b606082016000820151610e9a6000850182610f08565b506020820151610ead6020850182610f08565b506040820151610ec06040850182610f08565b50505050565b606082016000820151610edc6000850182610d00565b506020820151610eef6020850182610f08565b506040820151610f026040850182610dc5565b50505050565b610f1181611088565b82525050565b6000606082019050610f2c6000830186610d00565b610f396020830185610f08565b610f466040830184610dc5565b949350505050565b60006020820190508181036000830152610f688184610d0f565b905092915050565b60006020820190508181036000830152610f8a8184610d6a565b905092915050565b60006020820190508181036000830152610fab81610dd4565b9050919050565b60006020820190508181036000830152610fcb81610e0b565b9050919050565b6000606082019050610fe76000830184610e42565b92915050565b60006020820190506110026000830184610f08565b92915050565b6000602082019050919050565b6000602082019050919050565b600081519050919050565b600081519050919050565b6000602082019050919050565b6000602082019050919050565b600073ffffffffffffffffffffffffffffffffffffffff82169050919050565b600060038210151561108057fe5b819050919050565b6000819050919050565b6000819050919050565b60006110a782611072565b90509190505600a265627a7a723058208782420edd5c002308c96f184141d4d438263cf91858b7a229da7dc9d700ccce6c6578706572696d656e74616cf50037",
  "source": "pragma solidity ^0.4.24;\npragma experimental ABIEncoderV2;\n\nimport \"./Oracle.sol\";\n\n/**\n * TODO: change dependece of random oracle from block to players(require changes on transaction process).\n */\ncontract Lottery{\n    enum State { bingo, no_prize, pending} // state for a ticket\n    \n    struct Ticket {\n        address player; // address this ticket belongs to\n        uint lottery; // the bet number\n        State state; // the state\n    }\n\n    struct Prize {\n        uint winningNumber;\n        uint pool;\n        uint winners;\n    }\n\n    Oracle oracle;\n    Ticket[] public tickets; // all tickets ascending by time\n    Prize[] prizes; // prizes for each round\n    mapping (address => uint[]) addressBook; // holds the mapping between address and ticket indices\n    address owner; // house\n    uint interval; // interval between each drawing\n    uint prizeValue; // value for one ticket\n\n    uint drawTime; // upcoming drawing time\n    uint head; // head ticket for current round\n    address[] winners; // all winners in a round\n\n    // restrict for contract owner\n    modifier onlyByOwner() { \n        require(msg.sender == owner, \"Access denied.\");\n        _;\n    }\n\n    // restrict for bet\n    modifier restrictBet() {\n        require(now < drawTime, \"Time out.\");\n        require(msg.value == prizeValue, \"Invalid ticket price.\");\n        _;\n    }\n\n    // restrict for draw time\n    modifier restrictDraw() {\n        require(now >= drawTime, \"Bet not yet ended.\");\n        _;\n    }\n\n    // constructor\n    constructor (address oracleAddress) public {\n        oracle = Oracle(oracleAddress);\n        owner = msg.sender;\n        head = 0;\n        interval = 1 minutes;\n        drawTime = now + interval;\n        prizeValue = 1 wei;\n        prizes[prizes.length++] = Prize(0, 0, 0);\n    }\n\n    function () public payable {}\n\n    // @dev Bet.\n    // @para number The number you choose to bet.\n    // @return ticket_id Corresponding id for this ticket.\n    function bet(uint number) public payable restrictBet() returns (uint ticket_id) {\n        ticket_id = tickets.length++;\n        tickets[ticket_id] = Ticket(msg.sender, number, State.pending);\n        addressBook[msg.sender].push(ticket_id);\n    }\n\n    // @dev Draw the lottery\n    function draw() public returns (uint) {\n        delete winners;\n        uint winningNumber = oracle.getRandom(); // RNG\n        uint pool = address(this).balance;\n        // search for winners\n        for(; head < tickets.length; head++){\n            if(tickets[head].lottery == winningNumber ){ // bingo\n                tickets[head].state = State.bingo;\n                winners[winners.length++] = tickets[head].player;\n            }\n            else{ // no prize\n                tickets[head].state = State.no_prize;\n            }\n        }\n        // give out bonus\n        for(uint i = 0; i < winners.length; i++){\n            winners[i].transfer(address(this).balance / winners.length);\n        }\n\n        prizes[prizes.length++] = Prize(winningNumber, pool, winners.length);\n        drawTime = now + interval;\n        return prizes[prizes.length - 1].winningNumber;\n    }\n\n    // @dev show current result.\n    // @return Prize(winningNumber, pool, winners)\n    function showCurrentResult() public view returns (Prize) {\n        return (prizes[prizes.length - 1]);\n    }\n    \n    // @dev show history results.\n    // @return Prize[]\n    function showHistoryResults() public view returns (Prize[]) {\n        return prizes;\n    }\n\n    // @dev show tickets by one's address\n    // @return Tickets[]\n    function showByAddress() public view returns (Ticket[] memory results) {\n        results = new Ticket[](addressBook[msg.sender].length);\n        for(uint i = 0; i < addressBook[msg.sender].length; i++){\n            results[i] = tickets[addressBook[msg.sender][i]];\n        }\n    }\n\n}\n",
  "sourcePath": "/home/swj/Codes/eth/Lottery/contracts/Lottery.sol",
  "compiler": {
    "name": "solc",
    "version": "0.4.24+commit.e67f0147.Emscripten.clang"
  },
  "schemaVersion": "2.0.1",
  "updatedAt": "2018-09-10T12:25:30.852Z"
}