{
  "contractName": "Oracle",
  "abi": [
    {
      "inputs": [],
      "payable": false,
      "stateMutability": "nonpayable",
      "type": "constructor"
    },
    {
      "constant": true,
      "inputs": [],
      "name": "getRandom",
      "outputs": [
        {
          "name": "",
          "type": "uint256"
        }
      ],
      "payable": false,
      "stateMutability": "pure",
      "type": "function"
    }
  ],
  "bytecode": "0x6080604052348015600f57600080fd5b5060a08061001e6000396000f300608060405260043610603f576000357c0100000000000000000000000000000000000000000000000000000000900463ffffffff168063aacc5a17146044575b600080fd5b348015604f57600080fd5b506056606c565b6040518082815260200191505060405180910390f35b6000809050905600a165627a7a723058206823657e93038d86c9b089851c3c474dcd797930296cc33f40eb8efb81dd6d2e0029",
  "source": "pragma solidity ^0.4.24;\n\ncontract Oracle { // external oracle\n    constructor () public {}\n\n    function getRandom() public pure returns (uint){\n        return 0;\n    }\n\n}",
  "sourcePath": "/home/swj/Codes/eth/Lottery/contracts/Oracle.sol",
  "compiler": {
    "name": "solc",
    "version": "0.4.24+commit.e67f0147.Emscripten.clang"
  },
  "schemaVersion": "2.0.1",
  "updatedAt": "2018-09-10T12:25:30.845Z"
}