{
  "contractName": "Lottery",
  "abi": [
    {
      "constant": true,
      "inputs": [
        {
          "name": "",
          "type": "uint256"
        }
      ],
      "name": "tickets",
      "outputs": [
        {
          "name": "player",
          "type": "address"
        },
        {
          "name": "lottery",
          "type": "uint256"
        },
        {
          "name": "state",
          "type": "uint8"
        }
      ],
      "payable": false,
      "stateMutability": "view",
      "type": "function"
    },
    {
      "inputs": [],
      "payable": false,
      "stateMutability": "nonpayable",
      "type": "constructor"
    },
    {
      "payable": true,
      "stateMutability": "payable",
      "type": "fallback"
    },
    {
      "constant": false,
      "inputs": [
        {
          "name": "number",
          "type": "uint256"
        }
      ],
      "name": "bet",
      "outputs": [
        {
          "name": "ticket_id",
          "type": "uint256"
        }
      ],
      "payable": true,
      "stateMutability": "payable",
      "type": "function"
    },
    {
      "constant": false,
      "inputs": [],
      "name": "draw",
      "outputs": [
        {
          "name": "",
          "type": "uint256"
        }
      ],
      "payable": false,
      "stateMutability": "nonpayable",
      "type": "function"
    },
    {
      "constant": true,
      "inputs": [],
      "name": "showCurrentResult",
      "outputs": [
        {
          "components": [
            {
              "name": "winningNumber",
              "type": "uint256"
            },
            {
              "name": "pool",
              "type": "uint256"
            },
            {
              "name": "winners",
              "type": "uint256"
            }
          ],
          "name": "",
          "type": "tuple"
        }
      ],
      "payable": false,
      "stateMutability": "view",
      "type": "function"
    },
    {
      "constant": true,
      "inputs": [],
      "name": "showHistoryResults",
      "outputs": [
        {
          "components": [
            {
              "name": "winningNumber",
              "type": "uint256"
            },
            {
              "name": "pool",
              "type": "uint256"
            },
            {
              "name": "winners",
              "type": "uint256"
            }
          ],
          "name": "",
          "type": "tuple[]"
        }
      ],
      "payable": false,
      "stateMutability": "view",
      "type": "function"
    },
    {
      "constant": true,
      "inputs": [],
      "name": "showByAddress",
      "outputs": [
        {
          "components": [
            {
              "name": "player",
              "type": "address"
            },
            {
              "name": "lottery",
              "type": "uint256"
            },
            {
              "name": "state",
              "type": "uint8"
            }
          ],
          "name": "results",
          "type": "tuple[]"
        }
      ],
      "payable": false,
      "stateMutability": "view",
      "type": "function"
    }
  ],
  "bytecode": "0x608060405234801561001057600080fd5b5033600360006101000a81548173ffffffffffffffffffffffffffffffffffffffff021916908373ffffffffffffffffffffffffffffffffffffffff1602179055506000600781905550603c600481905550600454420160068190555060016005819055506060604051908101604052806000815260200160008152602001600081525060018080548091906001016100a991906100e9565b8154811015156100b557fe5b9060005260206000209060030201600082015181600001556020820151816001015560408201518160020155905050610152565b81548183558181111561011657600302816003028360005260206000209182019101610115919061011b565b5b505050565b61014f91905b8082111561014b576000808201600090556001820160009055600282016000905550600301610121565b5090565b90565b61109d806101616000396000f300608060405260043610610078576000357c0100000000000000000000000000000000000000000000000000000000900463ffffffff1680630eecae211461007a5780633be5978e146100a557806350b44712146100d05780636d707da11461010f5780637365870b1461013a578063eadfbb031461016a575b005b34801561008657600080fd5b5061008f610195565b60405161009c9190610fa2565b60405180910390f35b3480156100b157600080fd5b506100ba610573565b6040516100c79190610f87565b60405180910390f35b3480156100dc57600080fd5b506100f760048036036100f29190810190610c8c565b6105cd565b60405161010693929190610ecc565b60405180910390f35b34801561011b57600080fd5b50610124610633565b6040516101319190610f03565b60405180910390f35b610154600480360361014f9190810190610c8c565b6106b1565b6040516101619190610fa2565b60405180910390f35b34801561017657600080fd5b5061017f61089a565b60405161018c9190610f25565b60405180910390f35b600080600860006101a69190610aa4565b60034340600190048115156101b757fe5b066001808080549050038154811015156101cd57fe5b9060005260206000209060030201600001819055503073ffffffffffffffffffffffffffffffffffffffff163160018080805490500381548110151561020f57fe5b9060005260206000209060030201600101819055505b60008054905060075410156103d45760018080805490500381548110151561024957fe5b906000526020600020906003020160000154600060075481548110151561026c57fe5b90600052602060002090600302016001015414156103785760008060075481548110151561029657fe5b906000526020600020906003020160020160006101000a81548160ff021916908360028111156102c257fe5b021790555060006007548154811015156102d857fe5b906000526020600020906003020160000160009054906101000a900473ffffffffffffffffffffffffffffffffffffffff16600880805480919060010161031f9190610ac5565b81548110151561032b57fe5b9060005260206000200160006101000a81548173ffffffffffffffffffffffffffffffffffffffff021916908373ffffffffffffffffffffffffffffffffffffffff1602179055506103bd565b6001600060075481548110151561038b57fe5b906000526020600020906003020160020160006101000a81548160ff021916908360028111156103b757fe5b02179055505b600760008154809291906001019190505550610225565b600090505b60088054905081101561049a576008818154811015156103f557fe5b9060005260206000200160009054906101000a900473ffffffffffffffffffffffffffffffffffffffff1673ffffffffffffffffffffffffffffffffffffffff166108fc6008805490503073ffffffffffffffffffffffffffffffffffffffff163181151561046057fe5b049081150290604051600060405180830381858888f1935050505015801561048c573d6000803e3d6000fd5b5080806001019150506103d9565b6008805490506001808080549050038154811015156104b557fe5b9060005260206000209060030201600201819055506060604051908101604052806000815260200160008152602001600081525060018080548091906001016104fe9190610af1565b81548110151561050a57fe5b90600052602060002090600302016000820151816000015560208201518160010155604082015181600201559050506004544201600681905550600160026001805490500381548110151561055b57fe5b90600052602060002090600302016000015491505090565b61057b610b23565b60018080805490500381548110151561059057fe5b9060005260206000209060030201606060405190810160405290816000820154815260200160018201548152602001600282015481525050905090565b6000818154811015156105dc57fe5b90600052602060002090600302016000915090508060000160009054906101000a900473ffffffffffffffffffffffffffffffffffffffff16908060010154908060020160009054906101000a900460ff16905083565b60606001805480602002602001604051908101604052809291908181526020016000905b828210156106a8578382906000526020600020906003020160606040519081016040529081600082015481526020016001820154815260200160028201548152505081526020019060010190610657565b50505050905090565b6000600654421015156106f9576040517f08c379a00000000000000000000000000000000000000000000000000000000081526004016106f090610f47565b60405180910390fd5b6005543414151561073f576040517f08c379a000000000000000000000000000000000000000000000000000000000815260040161073690610f67565b60405180910390fd5b600080548091906001016107539190610b45565b90506060604051908101604052803373ffffffffffffffffffffffffffffffffffffffff16815260200183815260200160028081111561078f57fe5b8152506000828154811015156107a157fe5b906000526020600020906003020160008201518160000160006101000a81548173ffffffffffffffffffffffffffffffffffffffff021916908373ffffffffffffffffffffffffffffffffffffffff1602179055506020820151816001015560408201518160020160006101000a81548160ff0219169083600281111561082457fe5b0217905550905050600260003373ffffffffffffffffffffffffffffffffffffffff1673ffffffffffffffffffffffffffffffffffffffff168152602001908152602001600020819080600181540180825580915050906001820390600052602060002001600090919290919091505550919050565b60606000600260003373ffffffffffffffffffffffffffffffffffffffff1673ffffffffffffffffffffffffffffffffffffffff1681526020019081526020016000208054905060405190808252806020026020018201604052801561091a57816020015b610907610b77565b8152602001906001900390816108ff5790505b509150600090505b600260003373ffffffffffffffffffffffffffffffffffffffff1673ffffffffffffffffffffffffffffffffffffffff16815260200190815260200160002080549050811015610aa0576000600260003373ffffffffffffffffffffffffffffffffffffffff1673ffffffffffffffffffffffffffffffffffffffff168152602001908152602001600020828154811015156109ba57fe5b90600052602060002001548154811015156109d157fe5b9060005260206000209060030201606060405190810160405290816000820160009054906101000a900473ffffffffffffffffffffffffffffffffffffffff1673ffffffffffffffffffffffffffffffffffffffff1673ffffffffffffffffffffffffffffffffffffffff168152602001600182015481526020016002820160009054906101000a900460ff166002811115610a6957fe5b6002811115610a7457fe5b815250508282815181101515610a8657fe5b906020019060200201819052508080600101915050610922565b5090565b5080546000825590600052602060002090810190610ac29190610bba565b50565b815481835581811115610aec57818360005260206000209182019101610aeb9190610bba565b5b505050565b815481835581811115610b1e57600302816003028360005260206000209182019101610b1d9190610bdf565b5b505050565b6060604051908101604052806000815260200160008152602001600081525090565b815481835581811115610b7257600302816003028360005260206000209182019101610b719190610c16565b5b505050565b606060405190810160405280600073ffffffffffffffffffffffffffffffffffffffff1681526020016000815260200160006002811115610bb457fe5b81525090565b610bdc91905b80821115610bd8576000816000905550600101610bc0565b5090565b90565b610c1391905b80821115610c0f576000808201600090556001820160009055600282016000905550600301610be5565b5090565b90565b610c7591905b80821115610c7157600080820160006101000a81549073ffffffffffffffffffffffffffffffffffffffff021916905560018201600090556002820160006101000a81549060ff021916905550600301610c1c565b5090565b90565b6000610c848235611047565b905092915050565b600060208284031215610c9e57600080fd5b6000610cac84828501610c78565b91505092915050565b610cbe81611007565b82525050565b6000610ccf82610fd7565b808452602084019350610ce183610fbd565b60005b82811015610d1357610cf7868351610e39565b610d0082610fed565b9150606086019550600181019050610ce4565b50849250505092915050565b6000610d2a82610fe2565b808452602084019350610d3c83610fca565b60005b82811015610d6e57610d52868351610e7b565b610d5b82610ffa565b9150606086019550600181019050610d3f565b50849250505092915050565b610d8381611051565b82525050565b6000600982527f54696d65206f75742e00000000000000000000000000000000000000000000006020830152604082019050919050565b6000601582527f496e76616c6964207469636b65742070726963652e00000000000000000000006020830152604082019050919050565b606082016000820151610e0d6000850182610ebd565b506020820151610e206020850182610ebd565b506040820151610e336040850182610ebd565b50505050565b606082016000820151610e4f6000850182610ebd565b506020820151610e626020850182610ebd565b506040820151610e756040850182610ebd565b50505050565b606082016000820151610e916000850182610cb5565b506020820151610ea46020850182610ebd565b506040820151610eb76040850182610d7a565b50505050565b610ec68161103d565b82525050565b6000606082019050610ee16000830186610cb5565b610eee6020830185610ebd565b610efb6040830184610d7a565b949350505050565b60006020820190508181036000830152610f1d8184610cc4565b905092915050565b60006020820190508181036000830152610f3f8184610d1f565b905092915050565b60006020820190508181036000830152610f6081610d89565b9050919050565b60006020820190508181036000830152610f8081610dc0565b9050919050565b6000606082019050610f9c6000830184610df7565b92915050565b6000602082019050610fb76000830184610ebd565b92915050565b6000602082019050919050565b6000602082019050919050565b600081519050919050565b600081519050919050565b6000602082019050919050565b6000602082019050919050565b600073ffffffffffffffffffffffffffffffffffffffff82169050919050565b600060038210151561103557fe5b819050919050565b6000819050919050565b6000819050919050565b600061105c82611027565b90509190505600a265627a7a723058207136fac7b948beac159a4d7b54419ed25b8ca42b02b3313f31e843ea1278b7336c6578706572696d656e74616cf50037",
  "source": "pragma solidity ^0.4.24;\npragma experimental ABIEncoderV2;\n\ncontract Lottery{\n    enum State { bingo, no_prize, pending} // state for a ticket\n    \n    struct Ticket {\n        address player; // address this ticket belongs to\n        uint lottery; // the bet number\n        State state; // the state\n    }\n\n    struct Prize {\n        uint winningNumber;\n        uint pool;\n        uint winners;\n    }\n\n    Ticket[] public tickets; // all tickets ascending by time\n    Prize[] prizes; // prizes for each round\n    mapping (address => uint[]) addressBook; // holds the mapping between address and ticket indices\n    address owner; // banker\n    uint interval; // interval between each drawing\n    uint prizeValue; // value for one ticket\n\n    uint drawTime; // upcoming drawing time\n    uint head; // head ticket for current round\n    address[] winners; // all winners in a round\n\n    // restrict for contract owner\n    modifier onlyByOwner() { \n        require(msg.sender == owner, \"Access denied.\");\n        _;\n    }\n\n    // restrict for bet\n    modifier restrictBet() {\n        require(now < drawTime, \"Time out.\");\n        require(msg.value == prizeValue, \"Invalid ticket price.\");\n        _;\n    }\n\n    // restrict for draw time\n    modifier restrictDraw() {\n        require(now >= drawTime, \"Bet not yet ended.\");\n        _;\n    }\n\n    // constructor\n    constructor () public {\n        owner = msg.sender;\n        head = 0;\n        interval = 1 minutes;\n        drawTime = now + interval;\n        prizeValue = 1 wei;\n        prizes[prizes.length++] = Prize(0, 0, 0);\n    }\n\n    function () public payable {}\n\n    // @dev Bet.\n    // @para number The number you choose to bet.\n    // @return ticket_id Corresponding id for this ticket.\n    function bet(uint number) public payable restrictBet() returns (uint ticket_id) {\n        ticket_id = tickets.length++;\n        tickets[ticket_id] = Ticket(msg.sender, number, State.pending);\n        addressBook[msg.sender].push(ticket_id);\n    }\n\n    // @dev Draw the lottery\n    function draw() public returns (uint) {\n        delete winners;\n        prizes[prizes.length - 1].winningNumber = uint(blockhash(block.number)) % 3; // randomness\n        prizes[prizes.length - 1].pool = address(this).balance;\n        // search for winners\n        for(; head < tickets.length; head++){\n            if(tickets[head].lottery == prizes[prizes.length - 1].winningNumber ){ // bingo\n                tickets[head].state = State.bingo;\n                winners[winners.length++] = tickets[head].player;\n            }\n            else{ // no prize\n                tickets[head].state = State.no_prize;\n            }\n        }\n        // give out bonus\n        for(uint i = 0; i < winners.length; i++){\n            winners[i].transfer(address(this).balance / winners.length);\n        }\n\n        prizes[prizes.length - 1].winners = winners.length;\n        prizes[prizes.length++] = Prize(0, 0, 0);\n        drawTime = now + interval;\n        return prizes[prizes.length - 2].winningNumber;\n    }\n\n    // @dev show current result.\n    // @return Prize(winningNumber, pool, winners)\n    function showCurrentResult() public view returns (Prize) {\n        return (prizes[prizes.length - 1]);\n    }\n    \n    // @dev show history results.\n    // @return Prize[]\n    function showHistoryResults() public view returns (Prize[]) {\n        return prizes;\n    }\n\n    // @dev show tickets by one's address\n    // @return Tickets[]\n    function showByAddress() public view returns (Ticket[] memory results) {\n        results = new Ticket[](addressBook[msg.sender].length);\n        for(uint i = 0; i < addressBook[msg.sender].length; i++){\n            results[i] = tickets[addressBook[msg.sender][i]];\n        }\n    }\n}\n",
  "sourcePath": "/home/swj/Codes/eth/Lottery/contracts/Lottery.sol",
  "compiler": {
    "name": "solc",
    "version": "0.4.24+commit.e67f0147.Emscripten.clang"
  },
  "schemaVersion": "2.0.1",
  "updatedAt": "2018-08-23T11:18:28.887Z"
}