{
  "contractName": "Lottery",
  "abi": [
    {
      "constant": true,
      "inputs": [
        {
          "name": "",
          "type": "uint256"
        }
      ],
      "name": "ticket_history",
      "outputs": [
        {
          "name": "player",
          "type": "address"
        },
        {
          "name": "lottery",
          "type": "uint256"
        },
        {
          "name": "state",
          "type": "uint8"
        }
      ],
      "payable": false,
      "stateMutability": "view",
      "type": "function"
    },
    {
      "inputs": [],
      "payable": false,
      "stateMutability": "nonpayable",
      "type": "constructor"
    },
    {
      "constant": false,
      "inputs": [
        {
          "name": "number",
          "type": "uint256"
        }
      ],
      "name": "bet",
      "outputs": [
        {
          "name": "ticket_id",
          "type": "uint256"
        }
      ],
      "payable": true,
      "stateMutability": "payable",
      "type": "function"
    },
    {
      "constant": false,
      "inputs": [],
      "name": "draw",
      "outputs": [
        {
          "name": "",
          "type": "uint256"
        }
      ],
      "payable": false,
      "stateMutability": "nonpayable",
      "type": "function"
    }
  ],
  "bytecode": "0x608060405234801561001057600080fd5b5033600160006101000a81548173ffffffffffffffffffffffffffffffffffffffff021916908373ffffffffffffffffffffffffffffffffffffffff1602179055506000600281905550603c6003819055506003544201600481905550600160058190555060006006819055506107668061008c6000396000f300608060405260043610610057576000357c0100000000000000000000000000000000000000000000000000000000900463ffffffff1680630eecae211461005c57806342a22564146100875780637365870b14610110575b600080fd5b34801561006857600080fd5b50610071610144565b6040518082815260200191505060405180910390f35b34801561009357600080fd5b506100b2600480360381019080803590602001909291905050506103e8565b604051808473ffffffffffffffffffffffffffffffffffffffff1673ffffffffffffffffffffffffffffffffffffffff1681526020018381526020018260028111156100fa57fe5b60ff168152602001935050505060405180910390f35b61012e6004803603810190808035906020019092919050505061044e565b6040518082815260200191505060405180910390f35b600080600760006101559190610634565b600343406001900481151561016657fe5b066006819055505b60008054905060025410156102f957600654600060025481548110151561019157fe5b906000526020600020906003020160010154141561029d576000806002548154811015156101bb57fe5b906000526020600020906003020160020160006101000a81548160ff021916908360028111156101e757fe5b021790555060006002548154811015156101fd57fe5b906000526020600020906003020160000160009054906101000a900473ffffffffffffffffffffffffffffffffffffffff1660078080548091906001016102449190610655565b81548110151561025057fe5b9060005260206000200160006101000a81548173ffffffffffffffffffffffffffffffffffffffff021916908373ffffffffffffffffffffffffffffffffffffffff1602179055506102e2565b600160006002548154811015156102b057fe5b906000526020600020906003020160020160006101000a81548160ff021916908360028111156102dc57fe5b02179055505b60026000815480929190600101919050555061016e565b600090505b6007805490508110156103bf5760078181548110151561031a57fe5b9060005260206000200160009054906101000a900473ffffffffffffffffffffffffffffffffffffffff1673ffffffffffffffffffffffffffffffffffffffff166108fc6007805490503073ffffffffffffffffffffffffffffffffffffffff163181151561038557fe5b049081150290604051600060405180830381858888f193505050501580156103b1573d6000803e3d6000fd5b5080806001019150506102fe565b60035442016004819055503073ffffffffffffffffffffffffffffffffffffffff163191505090565b6000818154811015156103f757fe5b90600052602060002090600302016000915090508060000160009054906101000a900473ffffffffffffffffffffffffffffffffffffffff16908060010154908060020160009054906101000a900460ff16905083565b6000600454421015156104c9576040517f08c379a00000000000000000000000000000000000000000000000000000000081526004018080602001828103825260098152602001807f54696d65206f75742e000000000000000000000000000000000000000000000081525060200191505060405180910390fd5b60055434141515610542576040517f08c379a00000000000000000000000000000000000000000000000000000000081526004018080602001828103825260158152602001807f496e76616c6964207469636b65742070726963652e000000000000000000000081525060200191505060405180910390fd5b600080548091906001016105569190610681565b90506060604051908101604052803373ffffffffffffffffffffffffffffffffffffffff16815260200183815260200160028081111561059257fe5b8152506000828154811015156105a457fe5b906000526020600020906003020160008201518160000160006101000a81548173ffffffffffffffffffffffffffffffffffffffff021916908373ffffffffffffffffffffffffffffffffffffffff1602179055506020820151816001015560408201518160020160006101000a81548160ff0219169083600281111561062757fe5b0217905550905050919050565b508054600082559060005260206000209081019061065291906106b3565b50565b81548183558181111561067c5781836000526020600020918201910161067b91906106b3565b5b505050565b8154818355818111156106ae576003028160030283600052602060002091820191016106ad91906106d8565b5b505050565b6106d591905b808211156106d15760008160009055506001016106b9565b5090565b90565b61073791905b8082111561073357600080820160006101000a81549073ffffffffffffffffffffffffffffffffffffffff021916905560018201600090556002820160006101000a81549060ff0219169055506003016106de565b5090565b905600a165627a7a72305820ea39ea5dfc1698ae78ed4f25e94ec986d9be01254eff0577fb3354eec867d83a0029",
  "source": "pragma solidity ^0.4.24;\n\ncontract Lottery{\n    enum State { bingo, no_prize, pending} // state for a ticket\n    \n    struct Ticket {\n        address player; // address this ticket belongs to\n        uint lottery; // the bet number\n        State state; // the state\n    }\n\n    Ticket[] public ticket_history; // all tickets ascending by time\n    address owner; // banker\n    uint head; // head ticket for current round\n    uint interval; // interval between each drawing\n    uint drawTime; // upcoming drawing time\n    uint prizeValue; // value for one ticket\n    uint prizeNumber; // wining number in a round\n    address[] winners; // all winners in a round\n\n    // restrict for contract owner\n    modifier onlyByOwner() { \n        require(msg.sender == owner, \"Access denied.\");\n        _;\n    }\n\n    // restrict for bet\n    modifier restrictBet() {\n        require(now < drawTime, \"Time out.\");\n        require(msg.value == prizeValue, \"Invalid ticket price.\");\n        _;\n    }\n\n    // restrict for draw time\n    modifier restrictDraw() {\n        require(now >= drawTime, \"Bet not yet ended.\");\n        _;\n    }\n\n    // constructor\n    constructor () public {\n        owner = msg.sender;\n        head = 0;\n        interval = 1 minutes;\n        drawTime = now + interval;\n        prizeValue = 1 wei;\n        prizeNumber = 0;\n    }\n\n    // @dev Bet.\n    // @para number The number you choose to bet.\n    // @return ticket_id Corresponding id for this ticket.\n    function bet(uint number) public payable restrictBet() returns (uint ticket_id) {\n        ticket_id = ticket_history.length++;\n        ticket_history[ticket_id] = Ticket(msg.sender, number, State.pending);\n    }\n\n    // @dev Draw the lottery\n    function draw() public returns (uint) {\n        delete winners;\n        prizeNumber = uint(blockhash(block.number)) % 3; // randomness\n\n        for(; head < ticket_history.length; head++){\n            if(ticket_history[head].lottery == prizeNumber){ // bingo\n                ticket_history[head].state = State.bingo;\n                winners[winners.length++] = ticket_history[head].player;\n            }\n            else{ // no prize\n                ticket_history[head].state = State.no_prize;\n            }\n        }\n\n        // msg.sender.transfer(1);\n        // owner.transfer(1);\n        // ticket_history[0].player.transfer(1);\n        \n        for(uint i = 0; i < winners.length; i++){\n            winners[i].transfer(address(this).balance / winners.length);\n        }\n\n        drawTime = now + interval;\n        return address(this).balance;\n    }\n}\n",
  "sourcePath": "/home/swj/Codes/eth/Lottery/contracts/Lottery.sol",
  "compiler": {
    "name": "solc",
    "version": "0.4.24+commit.e67f0147.Emscripten.clang"
  },
  "schemaVersion": "2.0.1",
  "updatedAt": "2018-08-22T15:37:37.908Z"
}