{
  "contractName": "Lottery",
  "abi": [
    {
      "constant": true,
      "inputs": [
        {
          "name": "",
          "type": "uint256"
        }
      ],
      "name": "ticket_history",
      "outputs": [
        {
          "name": "player",
          "type": "address"
        },
        {
          "name": "lottery",
          "type": "uint256"
        },
        {
          "name": "state",
          "type": "uint8"
        }
      ],
      "payable": false,
      "stateMutability": "view",
      "type": "function"
    },
    {
      "constant": true,
      "inputs": [],
      "name": "owner",
      "outputs": [
        {
          "name": "",
          "type": "address"
        }
      ],
      "payable": false,
      "stateMutability": "view",
      "type": "function"
    },
    {
      "constant": true,
      "inputs": [
        {
          "name": "",
          "type": "uint256"
        }
      ],
      "name": "winners",
      "outputs": [
        {
          "name": "",
          "type": "address"
        }
      ],
      "payable": false,
      "stateMutability": "view",
      "type": "function"
    },
    {
      "inputs": [],
      "payable": false,
      "stateMutability": "nonpayable",
      "type": "constructor"
    },
    {
      "constant": false,
      "inputs": [
        {
          "name": "number",
          "type": "uint256"
        }
      ],
      "name": "bet",
      "outputs": [
        {
          "name": "ticket_id",
          "type": "uint256"
        }
      ],
      "payable": true,
      "stateMutability": "payable",
      "type": "function"
    },
    {
      "constant": false,
      "inputs": [],
      "name": "draw",
      "outputs": [
        {
          "name": "",
          "type": "bool"
        }
      ],
      "payable": false,
      "stateMutability": "nonpayable",
      "type": "function"
    }
  ],
  "bytecode": "0x608060405234801561001057600080fd5b5033600160006101000a81548173ffffffffffffffffffffffffffffffffffffffff021916908373ffffffffffffffffffffffffffffffffffffffff1602179055506000600281905550603c6003819055506003544201600481905550600160058190555060006006819055506000600881905550610984806100946000396000f30060806040526004361061006d576000357c0100000000000000000000000000000000000000000000000000000000900463ffffffff1680630eecae211461007257806342a22564146100a15780637365870b1461012a5780638da5cb5b1461015e578063a2fb1175146101b5575b600080fd5b34801561007e57600080fd5b50610087610222565b604051808215151515815260200191505060405180910390f35b3480156100ad57600080fd5b506100cc60048036038101908080359060200190929190505050610592565b604051808473ffffffffffffffffffffffffffffffffffffffff1673ffffffffffffffffffffffffffffffffffffffff16815260200183815260200182600281111561011457fe5b60ff168152602001935050505060405180910390f35b610148600480360381019080803590602001909291905050506105f8565b6040518082815260200191505060405180910390f35b34801561016a57600080fd5b506101736107ee565b604051808273ffffffffffffffffffffffffffffffffffffffff1673ffffffffffffffffffffffffffffffffffffffff16815260200191505060405180910390f35b3480156101c157600080fd5b506101e060048036038101908080359060200190929190505050610814565b604051808273ffffffffffffffffffffffffffffffffffffffff1673ffffffffffffffffffffffffffffffffffffffff16815260200191505060405180910390f35b6000600760006102329190610852565b600343406001900481151561024357fe5b066006819055505b60008054905060025410156103d657600654600060025481548110151561026e57fe5b906000526020600020906003020160010154141561037a5760008060025481548110151561029857fe5b906000526020600020906003020160020160006101000a81548160ff021916908360028111156102c457fe5b021790555060006002548154811015156102da57fe5b906000526020600020906003020160000160009054906101000a900473ffffffffffffffffffffffffffffffffffffffff1660078080548091906001016103219190610873565b81548110151561032d57fe5b9060005260206000200160006101000a81548173ffffffffffffffffffffffffffffffffffffffff021916908373ffffffffffffffffffffffffffffffffffffffff1602179055506103bf565b6001600060025481548110151561038d57fe5b906000526020600020906003020160020160006101000a81548160ff021916908360028111156103b957fe5b02179055505b60026000815480929190600101919050555061024b565b6000808154811015156103e557fe5b906000526020600020906003020160000160009054906101000a900473ffffffffffffffffffffffffffffffffffffffff1673ffffffffffffffffffffffffffffffffffffffff16600160009054906101000a900473ffffffffffffffffffffffffffffffffffffffff1673ffffffffffffffffffffffffffffffffffffffff161415156104f75760008081548110151561047c57fe5b906000526020600020906003020160000160009054906101000a900473ffffffffffffffffffffffffffffffffffffffff1673ffffffffffffffffffffffffffffffffffffffff166108fc6008549081150290604051600060405180830381858888f193505050501580156104f5573d6000803e3d6000fd5b505b6003544201600481905550600160009054906101000a900473ffffffffffffffffffffffffffffffffffffffff1673ffffffffffffffffffffffffffffffffffffffff166007600081548110151561054b57fe5b9060005260206000200160009054906101000a900473ffffffffffffffffffffffffffffffffffffffff1673ffffffffffffffffffffffffffffffffffffffff1614905090565b6000818154811015156105a157fe5b90600052602060002090600302016000915090508060000160009054906101000a900473ffffffffffffffffffffffffffffffffffffffff16908060010154908060020160009054906101000a900460ff16905083565b600060045442101515610673576040517f08c379a00000000000000000000000000000000000000000000000000000000081526004018080602001828103825260098152602001807f54696d65206f75742e000000000000000000000000000000000000000000000081525060200191505060405180910390fd5b600554341415156106ec576040517f08c379a00000000000000000000000000000000000000000000000000000000081526004018080602001828103825260158152602001807f496e76616c6964207469636b65742070726963652e000000000000000000000081525060200191505060405180910390fd5b60008054809190600101610700919061089f565b90506060604051908101604052803373ffffffffffffffffffffffffffffffffffffffff16815260200183815260200160028081111561073c57fe5b81525060008281548110151561074e57fe5b906000526020600020906003020160008201518160000160006101000a81548173ffffffffffffffffffffffffffffffffffffffff021916908373ffffffffffffffffffffffffffffffffffffffff1602179055506020820151816001015560408201518160020160006101000a81548160ff021916908360028111156107d157fe5b021790555090505034600860008282540192505081905550919050565b600160009054906101000a900473ffffffffffffffffffffffffffffffffffffffff1681565b60078181548110151561082357fe5b906000526020600020016000915054906101000a900473ffffffffffffffffffffffffffffffffffffffff1681565b508054600082559060005260206000209081019061087091906108d1565b50565b81548183558181111561089a5781836000526020600020918201910161089991906108d1565b5b505050565b8154818355818111156108cc576003028160030283600052602060002091820191016108cb91906108f6565b5b505050565b6108f391905b808211156108ef5760008160009055506001016108d7565b5090565b90565b61095591905b8082111561095157600080820160006101000a81549073ffffffffffffffffffffffffffffffffffffffff021916905560018201600090556002820160006101000a81549060ff0219169055506003016108fc565b5090565b905600a165627a7a723058207b9719aef04f6102bb3d69f07ad2bc3a7a80b1bbbe4e4fc833a5e9ae9c73ee830029",
  "source": "pragma solidity ^0.4.24;\n\ncontract Lottery{\n    enum State { bingo, no_prize, pending} // state for a ticket\n    \n    struct Ticket {\n        address player; // address this ticket belongs to\n        uint lottery; // the bet number\n        State state; // the state\n    }\n\n    Ticket[] public ticket_history; // all tickets ascending by time\n    address public owner; // banker\n    uint head; // head ticket for current round\n    uint interval; // interval between each drawing\n    uint drawTime; // upcoming drawing time\n    uint prizeValue; // value for one ticket\n    uint prizeNumber; // wining number in a round\n    address[] public winners; // all winners in a round\n    uint balance;\n\n    // restrict for contract owner\n    modifier onlyByOwner() { \n        require(msg.sender == owner, \"Access denied.\");\n        _;\n    }\n\n    // restrict for bet\n    modifier restrictBet() {\n        require(now < drawTime, \"Time out.\");\n        require(msg.value == prizeValue, \"Invalid ticket price.\");\n        _;\n    }\n\n    // restrict for draw time\n    modifier restrictDraw() {\n        require(now >= drawTime, \"Bet not yet ended.\");\n        _;\n    }\n\n    // constructor\n    constructor () public {\n        owner = msg.sender;\n        head = 0;\n        interval = 1 minutes;\n        drawTime = now + interval;\n        prizeValue = 1 wei;\n        prizeNumber = 0;\n        balance = 0;\n    }\n\n    // @dev Bet.\n    // @para number The number you choose to bet.\n    // @return ticket_id Corresponding id for this ticket.\n    function bet(uint number) public payable restrictBet() returns (uint ticket_id) {\n        ticket_id = ticket_history.length++;\n        ticket_history[ticket_id] = Ticket(msg.sender, number, State.pending);\n        balance += msg.value;\n    }\n\n    // @dev Draw the lottery\n    function draw() public returns (bool) {\n        delete winners;\n        prizeNumber = uint(blockhash(block.number)) % 3; // randomness\n\n        for(; head < ticket_history.length; head++){\n            if(ticket_history[head].lottery == prizeNumber){ // bingo\n                ticket_history[head].state = State.bingo;\n                winners[winners.length++] = ticket_history[head].player;\n            }\n            else{ // no prize\n                ticket_history[head].state = State.no_prize;\n            }\n        }\n\n        //owner.transfer(balance);\n        if(owner != ticket_history[0].player){\n            ticket_history[0].player.transfer(balance);\n        }\n        // for(uint i = 0; i < winners.length; i++){\n        //     winners[i].transfer(address(this).balance / winners.length);\n        // }\n\n        drawTime = now + interval;\n        return winners[0] == owner;\n    }\n}\n",
  "sourcePath": "/home/swj/Codes/eth/qwe/contracts/Lottery.sol",
  "compiler": {
    "name": "solc",
    "version": "0.4.24+commit.e67f0147.Emscripten.clang"
  },
  "schemaVersion": "2.0.1",
  "updatedAt": "2018-08-22T14:14:56.641Z"
}